:020000040000FA
:06000000B4EF00F0120055
:040008006BEF00F0AA
:06002A0001008601000048
:080030008A000000020000003C
:080038002A0EF66E000EF76EB1
:10004000000EF86E00010900F550856F0900F550AB
:10005000866F03E1856701D03DD00900F550806FC0
:100060000900F550816F0900F550826F0900090001
:10007000F550E96E0900F550EA6E09000900090023
:10008000F550836F0900F550846F09000900F6CF21
:1000900087F0F7CF88F0F8CF89F080C0F6FF81C0F5
:1000A000F7FF82C0F8FF0001835302E1845307E0A9
:1000B0000900F550EE6E8307F8E28407F9D787C090
:1000C000F6FF88C0F7FF89C0F8FF00018507000E22
:0600D000865BBFD71200A1
:0A00D600DACFE4FFE2CFDAFFE652D2
:1000E000F2A211D000018A2B000E8B238AC000F0EF
:1000F0008BC001F0030ED89000360136E804FBE116
:100100000050816EF292E552E5CFDAFF1100050E44
:10011000936E0F0EC16ED09ED00EF26EF19C818E4A
:10012000320EE66E9DEC00F0E552819E320EE66ED8
:0A0130009DEC00F0E552F3D7120039
:06013A00FF0EE350056E0C
:10014000EF0E01D0F30EE76EE72EA4EF00F00C0ED9
:10015000046EE76AE72EAAEF00F0042EA9EF00F084
:08016000052EA2EF00F01200D1
:0801680015EE00F025EE00F099
:10017000F86A039C1CEC00F0C2EC00F087EC00F085
:04018000FBD7120097
:02018400120067
:02018600000077
:020000040030CA
:0100010002FC
:010003001EDE
:010005008179
:00000001FF
