:020000040000FA
:0600000003EF01F0120005
:0400080016EF00F0FF
:02002A000000D4
:04002C00DACFE4FF44
:10003000E2CFDAFFE9CFE4FFEACFE4FFF6CFE4FF57
:10004000F7CFE4FFF5CFE4FFF3CFE4FFF4CFE4FF15
:10005000FACFE4FF00EE00F0020EE80403E3EECF77
:10006000E4FFFBD700EE04F0000EE80403E3EECF5C
:10007000E4FFFBD7E652F0B0F090F0A208D0F09287
:10008000818E640EE66EECEC00F0E552819EE55246
:1000900000EE03F0000EE80403E3E5CFEDFFFBD72D
:1000A00000EE01F0020EE80403E3E5CFEDFFFBD71D
:1000B000E5CFFAFFE5CFF4FFE5CFF3FFE5CFF5FF9E
:1000C000E5CFF7FFE5CFF6FFE5CFEAFFE5CFE9FFA4
:1000D000E5CFDAFF1100040E936E0F0EC16EF28EA3
:1000E000F088F198819E819C819A81988196818681
:1000F000819C819A8198640EE66EECEC00F0E552EA
:100100008188819C819A8196640EE66EECEC00F009
:10011000E552818A819C81968198640EE66EECECB2
:1001200000F0E552818C8196819A8198640EE66E8A
:0A013000ECEC00F0E552DBD7120002
:06013A002A0EF66E000E15
:10014000F76E000EF86E00010900F550856F09008A
:10015000F550866F03E1856701D03DD00900F55069
:10016000806F0900F550816F0900F550826F09001A
:100170000900F550E96E0900F550EA6E0900090022
:100180000900F550836F0900F550846F09000900DC
:10019000F6CF87F0F7CF88F0F8CF89F080C0F6FF70
:1001A00081C0F7FF82C0F8FF0001835302E184534E
:1001B00007E00900F550EE6E8307F8E28407F9D7EF
:1001C00087C0F6FF88C0F7FF89C0F8FF00018507E8
:0801D000000E865BBFD7120090
:0801D800FF0EE350036EEF0E71
:1001E00001D0F30EE76EE72EF3EF00F00C0E026E77
:1001F000E76AE72EF9EF00F0022EF8EF00F0032E89
:06020000F1EF00F0120016
:0A02060015EE00F025EE00F0F86A96
:10021000019C9DEC00F011EC01F06BEC00F0FBD7C1
:020220001200CA
:020222001200C8
:020000040030CA
:0100010002FC
:010003001EDE
:010005008179
:00000001FF
